:400000000080002011000000050700000507000010B500F07FFBC04670B51222224B1A6000F0F0FF214801F08FFA012001F00AF8302000F06DFE1E4C8025ED0525601D4A14
:40004000116802230B4313601B4A1C4B1A6000221B4B1A601B4A136808218B431360FA20C00000F007FF184800F048FE8022D200164B1A60164B174A1A60C8214901164A0B
:400080001160164A1A6082221206154B1A608022D202144B1A604022134B1A600132134B1A60256070BDC04630001040001BB7000C020B4078002E40666600007C002E40CC
:4000C00064F02E406CF02E40DC050000000301400000014040FF00800403014041FF008008010B4000010B40180101400401014010B572B60022224B1A6000240FE0214895
:400100006200131959000B00411889881A5AC31858880004104300F0C1FA0134E4B2012CEDD9EE221206184B1A6099231B04174A1360174A1360174A1360174A1360174AE3
:40014000117806230B43DBB213700223144A13601449154A11600821144A1160202214490A60C42080021349086013490A60134A1360134A1360FFF74FFF00F0A5FA10BD1B
:400180006CF02E4084360100000002400001024000500F4010500F4030500F4000700F40000004401000D800080004400C000440000104400801044018010440000304405B
:4001C0001803044010B5064C2378002B07D1054B002B02D0044800E000BF0123237010BD481000200000000080360100084B10B5002B03D00749084800E000BF07480368F1
:40020000002B00D110BD064B002BFBD09847F9E7000000004C10002080360100A00B00200000000010B562B6114800F0D3FA114800F0C2F801F0C8F800F010FA01F0A8FCBB
:4002400000F0E4F90C4B1B78022BF7D10B4B00229B5E002BF2D0094B02229B5E012BEDD100F082F801F094FC0022044B1A80E5E77505000099020000D42100206410002099
:40028000002301E001331BB282889342FADB70470170090A4170704710B58A78DA235B00984212D00233984214D0B423FF33984213D1002A11D10132084B1A80084B1A7044
:4002C000084B00221A705A7007E0002A05D1034B1A8002E04868FFF7D3FF10BD66100020A40B00206810002070B586B001AC20800C0015001E00184B1B78022B25D14A00F8
:4003000052185300154AD3189B88013B9A00D3189A00134B9A181369586800F0F5FA830716D563001C1963000C4AD3185B8803A90B8103968D8001980DF04AFB002809D1BE
:4003400003AB1A89074B5A8004E00420FF3001E00220FF3006B070BDD4210020AC390100A43601006810002010B5012000F0AEFC01F03AF8022001F041F8002001F052F8FC
:4003800081B20A4C2000FFF783FF094A1378507800021843230002220021FFF7A5FF002802D00022034B1A8010BDC04668100020DC21002066100020014B18607047C04674
:4003C000C8210020F0B583B00500404B1B68002B72D1002677E0A88921006200121953003B4AD3189B88984207D0620012195300374AD3185B8898425BD12B886A4613807D
:4004000094702B1D01934B0059184B00304AD3185F88B84210D1002E45D1281D40232A0000210EF041FD061E3DD1284B1B686946DB204000984736E0281D40232A00002141
:400440000EF032FD061E2ED1013FBB00DF19BB00204AD3185F68FB0211D5686800F054FAC30706D5194B1B686946B220FF30984705E0164B1B686946D92040009847BB0209
:4004800011D5686800F040FA830706D50F4B1B686946B420FF30984705E00C4B1B686946DA20400098470C4A137801218B43137001270134E4B202E0002700260024002C3C
:4004C00001D1002F87D0300003B0F0BDC8210020AC390100A4360100DF21002030B583B005001A4B1B68002B2ED0194B5B88002B24D129E0620012195300164AD3185A887F
:40050000134B5B889A4216D102222900684601F0F2FA6B469C70002201920F490B78012083430B700A4B5A80084B1B686946B620FF30984701210134E4B201E00021002485
:40054000002C01D10029D5D003B030BDC821002068100020AC390100DF21002010B5044A1388013313808020C00000F061FE10BD6410002010B582B00C0028282DD004D8B7
:4005800001280DD026281BD039E082235B0098422ED00623FF3398422ED04C282FD120E0002000F06BF900236A469371684601F0EBFA062301E0013BDBB2002BFBD11EE0CD
:4005C000104B1B78042B1AD100F048FF00F082FF00F072FF00F0B2FC11E0002000F04EF90DE0081DFFF74CFE20680DF035FA06E00122054B1A8002E00022034B1A8002B06D
:4006000010BDC046D42100206610002070B5124B1B78023BDBB2012B1CD8032001F0ACFA050000F09AFF0400032D0AD103F0B2FA042803D003F0AEFA062808D100F052FC68
:4006400005E003F0A7FA022801D000F03DFC200000F087FF70BDC046D421002010B500F03FFD0C4800F062FF0121012000F062FD0121012000F07AFD0749012000F0AEFD21
:40068000012000F0FBFD8020400000F089FD00F019FD10BD5D050000FF7F000010B50A00002101F031FA10BD064B1B68002803D080221206134301E05B005B08014A136013
:4006C0007047C04680033A4010B50323084A1360084A136080221206074B1A600222074B1A600022064B1A600120FFF7DDFF10BD300030403000314000003A4000033A4070
:40070000000E3F4010B501F0BBF903680C2B00D1FEE7FEE770B50F4E0F4D13E029686B68AC68002202E001C901C30432A242FAD1E868002202E0002102C304328242FAD1C6
:400740001035013E002EE9D101F0A0F9FFF76AFDFEE7C04601000000083A010010B50E4A136801218B43136000230AE0032B03D89A000A49505800E009489900094A88505C
:4007800001332F2BF2D9FFF7B3FC034A116801230B43136010BDC0460000104000000000050700000000002010B500F033FA10BD10B50023044A1370044A1370044A137037
:4007C000FFF7F2FF10BDC046DF210020D8210020DE21002010B590B00400142220490BA801F089F920231F4AD35C002B05D1FFF7DFFF012120231B4AD154002C2CD01A4BED
:400800001C6008A805AA426006AB0893002101811B311980598017391971002313701231694401F091FA002817D1002302930193053300930BABAE2212010C490C4801F048
:40084000D9F9002809D101220A4B1A700732142109480EF011FB00E0012010B010BDC0469036010070100020CC210020C0000020050A0000D4210020A436010010B5022803
:400880002FD81C4B1B78042B2DD11B4B1B785B072CD4002809D1194B0F221A861132596A0A805B6A10325A800CE001280AD1134B0A221A86C822D200596A0A805B6AC82235
:4008C00012015A800E4B18700C4820300BF0D8FE00280DD1084A117804230B43DBB2137006E0012004E00420FF3001E00420FF3010BDC046D4210020DF210020A80B002002
:40090000DE2100207047C04603784078000218437047C04670B5050083890F2B1FD1043031332A0000210EF0BFFA041E11D16868FFF7EAFF830706D50A4B1B6829008220D9
:400940004000984705E0074B1B6829000620FF309847054A137801218B43137000E00024200070BDCC210020DF210020024B00225A701A707047C046DC21002010B582B0E2
:400980000400FFF7C7FF0F4B1B78DB0704D5002802D12000FFF716FD0A4B1B78DB070ED4002809D001A912238B70A3890B80C87020680CF0CFFF02E020680DF04DF802B085
:4009C00010BDC046DF21002010B5002805D0034B1B78DB0701D5FFF781FD10BDDF2100208379002B07D000200BE0C25C002A07D10133DBB200E00023052BF6D9002000E05C
:400A000001207047F0B583B005000C00754A117801230B43DBB21370542800D9D0E08300714AD3589F4601AE0727377000237370300003F00FF9377001237370300003F052
:400A400009F901F095F8694B1E683000FFF7C8FF00280CD0300001F09FF8644E00213068FFF750FF30680121FFF74CFF0BE0604E300001F091F800213000FFF743FF01217A
:400A80003000FFF73FFF03200BF08CFC01A83F230370002343700BF0A3FC0422554B1A708EE02278544B1A708AE02378002B00D086E06378002B06D1504B0022DA809A8049
:400AC0004F4A1A606360474A137801218B43137076E0444B1B789B0672D44A4B1B78102B02D10522474BDA70474B187845490BF085FD01AB1880002804D0444B1B6801A9D0
:400B000036209847374A117801230B43DBB2137056E00222374B1A7052E00422354B1A704EE0344B1B78022B4AD02E4A1278D20746D52C4A1278520708D503222D4B1A7052
:400B4000284A137804218B43137039E0254A1278120708D50422274B1A70224A137808218B4313702CE0032B2AD10422214B1A70274B1B78002B23D10120FFF77FFE002836
:400B80001ED103221B4B1A701AE0022221001E4800F0B1FF0022184B1A7011E0FFF7E6FE0EE06188162900D9172120880CF0DCFE06E02000FFF7E2FE02E02000FFF704FF96
:400BC000084B1A7811231A4209D0064A137801218B4313700D4B1B6821002800984703B0F0BDC046DF2100204C380100DC0B0020E00B0020D4210020D82100209410002047
:400C0000A00B00206C0C0020DC210020CC210020DE2100207047C04610B5040000F09DFCE304E022920313401900054C2368054A1A400B001343236000F093FC10BDC04654
:400C400000010B40FFFFC7FF024B1B68012018407047C0460C002E4001BE704770B504000D001F2802D90020FFF7F6FF1034A40080239B059C4664442068256070BDC04616
:400C800070B504000E00032902D90020FFF7E4FF1F2C02D90020FFF7DFFF03252540ED00063500F05AFCA408A400074B9C46644421680323AB4099430B003100A9401943C5
:400CC000216000F04EFC70BD00E400E010B5040006E0084B586800F037FC074B9C46644480231B029C42F4D8024B9868604300F02BFC10BD740C00200080FFFF10B5034B18
:400D00001B7B584300F020FC10BDC046740C0020F0B557464E46C0B483B0040000F01DFC0190E71E2D2F74D83F4B1B78DBB29C4208D83E4B1B78DBB29A463D4B1B78DBB2A2
:400D4000994631E03B4B1B78DBB29C4208D83A4B1B78DBB29A46394B1B78DBB2994623E0374B1B78DBB29C4208D8364B1B78DBB29A46354B1B78DBB2994615E0334B1B78AE
:400D8000DBB29C4208D8324B1B78DBB29A46314B1B78DBB2994607E02F4B1B78DBB29A462E4B1B78DBB299462D4BDE5D2F2E09D92A2C07D919222B4B1A60052000F0C4FBF0
:400DC000192503E0274B1D683F231D40B54206D9234BDA5D234B1A60052000F0B5FB1F4B9C4664442378DBB21F4A13601F4B52461A601F4B4A461A600520FFF77FFFB5427C
:400E00000AD2174BDA5D174B1A60052000F09CFB02E00020FFF720FF019800F0A2FB03B00CBC91469A46F0BD40F3FF0F41F3FF0F42F3FF0F43F3FF0F44F3FF0F45F3FF0F04
:400E400046F3FF0F47F3FF0F48F3FF0F49F3FF0F4AF3FF0F4BF3FF0F4CF3FF0F4DF3FF0FB43901002CFF0B4028FF0B401CFF0B4020FF0B4010B504000F4A116801230B436B
:400E800013600E4A0E4B1A600E4A1368802109020B431360002809D100200CE00120FFF72DFFFFF7D1FE002804D1013C002CF5D1102000E0002010BD60F02E400220000035
:400EC00078002E4010002E4010B500F046FB044A136804218B43136030BF00F042FB10BD10ED00E030B583B000F037FB04000E4A13685B005B0813600C4B1B889BB20C4AC4
:400F000013600C4A116804230B4313600A4D2B6801930220FFF780FE30BF019B2B60200000F01FFB03B030BD00000B4052F2FF0F0C000B4010ED00E000010B4010B500F0C1
:400F40000CFB1F4A13689B009B0813601D4A13689B009B0813601C4A13689B009B0813601A4A13689B009B081360194A13689B009B081360174A13689B009B081360164AA4
:400F800013689B009B081360144A1368802109060B431360124B1B889BB2124A1360124A116804230B43136010490B68FF2293430E3A13430B6030BF00F0D3FA10BDC04697
:400FC0000800044008010440080204400803044008040440080504400806044000000B4050F2FF0F0C000B4010ED00E02C000B40034B1868C0231B02184000D001207047B4
:4010000000010B4010B50D4B1A6801218A431A601A68022082431A60094A10683024A043203C204310601068093CA043014311601A68802109060A431A6010BD00F02E40CF
:4010400000FF2E4070B51D4B1B6801241C40002802D0012816D02BE0184B19680122914319601968022081431960154B19682E3081432038014319601968093881430A433F
:401080001A6018E00D4B1A6802218A431A600C4A10680725A84301431160116830208143103801431160196801220A431A6002E00020FFF7D1FD200070BDC04600F02E4074
:4010C00000FF2E4010B500F048FA044A1368C02109020B43136000F044FA10BD00010B4010B500F03AFA08490A68084B1A408024E40122430A600A6813408022120213434D
:401100000B6000F02EFA10BD00010B40FF3FFFFF10B50400022802D90020FFF79DFD044B1868E4000134E0400123184010BDC04610020B4070B504000D00022802D900204A
:40114000FFF78AFD2000FFF7E3FF00280AD1064A1368E40003210800A04083430D40A5401D43156070BDC0460C020B4070B504000D00012802D90020FFF76EFD2000FFF712
:40118000C7FF002809D105490B68E40002340122A2409343A5401D430D6070BD0C020B4010B504000C4A136803431360C30704D50020FFF7ADFF0028FAD0E30504D50120ED
:4011C000FFF7A6FF0028FAD0E30304D50220FFF79FFF0028FAD010BD10020B4070B505000C00012802D90020FFF736FD0D4B1B689B0F01D1C92000E05D20FFF77FFD0A49EC
:401200000B682D01094AAA409343AC401C430C60044B1B689B0F01D1432000E01F20FFF76DFD70BD0C020B4008020B40FFFF000070B5050000F091F90400FFF7D9FE00289D
:4012400003D0FFF74DFF012100E0002108482840084A1568084B2B40184310601368012901D1FFF72FFF200000F07BF970BDC0460404040010020B40FBFBFBFF054A1168B3
:40128000054B184008431060024B1A68024B1A42FAD1704710020B400808080010B503210F20FFF7EDFC24490F20FFF7D7FC0122224B1A60224B1B68002B01DA214900E0B6
:4012C0002149224A13680B431360214A214B1A60214A224B1A600023214A1360214A22490A6022490A6022490A688020400202430A60204A1360204A136001221F4B1A60F4
:401300001F4A11681F4B0B40802189050B43136000230DE09A001C4951188020C0000860580000241949445219481A4950500133002BEFD010BDC0465114000020003A401E
:4013400080033A40C0021050C002005000003A409400008004003A400000FF0718003A401C003A400200020010003A4014003A4000033A4028023A4038023A4018023A407D
:4013800030003A40FEFFFFDF80003A40E4210020204E0000E021002010B5094B1B68002B0CDB084B1B68002BFBDB054A1368802109060B4313600A20FFF7A0FC10BDC046AB
:4013C00000003A4008023A4010B5064B1B78002B04D1FFF763FF0122024B1A70FFF7DCFF10BDC0469C100020034A1368802149020B4313607047C04604003A400200830748
:401400000CD0074B1B680120184001D19307F8D4002804D00122024B1A6000E00020704710023A4010B5041E02D00020FFF714FC002C07D1A400054B9C4664442068000434
:40144000000C00E0002000B210BDC04680013A40014B1A681A60704710023A40034A10680223184010604008C0B27047100004407047C046014B18647047C046000000207C
:4014800010B5040000F069F8044A1368C0218B43A4011C43146000F064F810BD00E400E00122014B1A60704700E100E00122014B1A60704780E100E010B5FFF7F7FF044806
:4014C000FFF7D8FF0320FFF7DBFFFFF7E9FF10BD711400000122014B1A60704780E200E0014B18667047C0460000002010B5040000F033F8044A1368C0218B43A4011C4313
:40150000146000F02EF810BD08E400E080225200014B1A607047C04600E100E080225200014B1A607047C04680E100E010B50400FFF7F4FF2000FFF7D3FF0320FFF7D6FF10
:40154000FFF7E4FF10BDC0460230800803D00138FDD1C046C046C0467047EFF3108072B6704780F3108870470160704701607047324B1A781202324B1B781A43314B1B7880
:401580001B02314909780B4330498B4201D1072A06D0D42109018B4206D1042A04D102E02B4B042200E02A4B2A490B602A4B1A602A4B1B781B022A4A1278134380229201B2
:4015C000934202D0002B02D002E0264B00E0254B254A1360254B1B781B02254A12781343244A934205D0244A934204D0052B05D103E0224B02E0214B00E0204B204A136058
:40160000204B1B681B09204A1268AA2A15D1012B13D9164B1B780E2B0FD11C4B1B781B021B4A127813431B4A13601B4B1B781B021A4A127813431A4A1360704759F1FF0F61
:4016400058F1FF0F5FF1FF0F5EF1FF0F580B0000580D00006C002E4074002E405BF1FF0F5AF1FF0F0220000078002E405DF1FF0F5CF1FF0F0F0F000005050000050F000026
:4016800080002E40EC0F00F0E00F00F06DF2FF0F6CF2FF0F84002E406FF2FF0F6EF2FF0F94002E4010B5FFF729FB10BD10B5FFF70DFB10BD10B500F04BF810BD10B500F012
:4016C0004FF810BD10B500F04BF8034800F02AF8032000F02DF810BD8D17000010B5024800F046F810BDC0468D17000000487047010200002B2070472B2070472B2070471C
:401700002B2070472B2070472B2070472B2070472B2070472B2070472B2070472B2070477047C046014B18677047C0460000002010B50400FFF711FF044A1368C0218B43ED
:40174000A4011C431460FFF70CFF10BD0CE400E080225201014B1A607047C04600E100E080225201014B1A607047C04680E100E010B50400FFF7F4FF2000FFF7D3FF0320A4
:40178000FFF7D6FFFFF7E4FF10BDC04610B511F063FF10BD002243088B4274D303098B425FD3030A8B4244D3030B8B4228D3030C8B420DD3FF22090212BA030C8B4202D305
:4017C0001212090265D0030B8B4219D300E0090AC30B8B4201D3CB03C01A5241830B8B4201D38B03C01A5241430B8B4201D34B03C01A5241030B8B4201D30B03C01A524123
:40180000C30A8B4201D3CB02C01A5241830A8B4201D38B02C01A5241430A8B4201D34B02C01A5241030A8B4201D30B02C01A5241CDD2C3098B4201D3CB01C01A5241830937
:401840008B4201D38B01C01A524143098B4201D34B01C01A524103098B4201D30B01C01A5241C3088B4201D3CB00C01A524183088B4201D38B00C01A524143088B4201D34E
:401880004B00C01A5241411A00D20146524110467047FFE701B5002000F0F0F802BDC0460029F7D076E7704703460B437FD4002243088B4274D303098B425FD3030A8B42AF
:4018C00044D3030B8B4228D3030C8B420DD3FF22090212BA030C8B4202D31212090265D0030B8B4219D300E0090AC30B8B4201D3CB03C01A5241830B8B4201D38B03C01A37
:401900005241430B8B4201D34B03C01A5241030B8B4201D30B03C01A5241C30A8B4201D3CB02C01A5241830A8B4201D38B02C01A5241430A8B4201D34B02C01A5241030ABB
:401940008B4201D30B02C01A5241CDD2C3098B4201D3CB01C01A524183098B4201D38B01C01A524143098B4201D34B01C01A524103098B4201D30B01C01A5241C3088B427D
:4019800001D3CB00C01A524183088B4201D38B00C01A524143088B4201D34B00C01A5241411A00D201465241104670475DE0CA0F00D04942031000D34042534000229C46CF
:4019C00003098B422DD3030A8B4212D3FC22890112BA030A8B420CD3890192118B4208D3890192118B4204D389013AD0921100E08909C3098B4201D3CB01C01A52418309A1
:401A00008B4201D38B01C01A524143098B4201D34B01C01A524103098B4201D30B01C01A5241C3088B4201D3CB00C01A524183088B4201D38B00C01A5241D9D243088B42B5
:401A400001D34B00C01A5241411A00D20146634652415B10104601D34042002B00D54942704763465B1000D3404201B5002000F005F802BD0029F8D016E770477047C04684
:401A8000014B18687047C046401000200E4B70B500251E000D4CE41AA410A54204D0AB00F35898470135F8E711F09CFF084B00251E00084CE41AA410A54204D0AB00F358D3
:401AC00098470135F8E770BDF0390100F0390100F0390100F839010030B50024A24208D0035D651C0C5DA34201D0181B02E02C00F4E7002030BD002310B59A4203D0CC5C68
:401B0000C4540133F9E710BD03008218934202D019700133FAE77047134A1088810703D08107890F401A001D11791030484381B25088820703D08207920F801A001D80000F
:401B400040180A494030098980B2CA0701D0503080B2890706D504495422091F09785143081880B2704700008E0C0020AC10002010B501F069FF10BD10B501F06BFF10BD50
:401B800010B501F07DFF10BD10B501F081FF10BD10B500F05BFA10BD10B50749044609780220002907D1204601F0C2FF002802D120460AF009FD10BD2C0E002070B504463A
:401BC0000120002C12D02368002B0FD0616800290CD0074D06222889208118462968FFF78AFF6968606809780170002070BD0000AC100020FFB585B0002768460E9D077380
:401C00004F481C460078002802D0082009B0F0BD10990F9801900095029105A807C800F007F90028F2D16946264603AB84460873002C19D0002115E08A00B75A082F09D95E
:401C400090198078002805D0083FB7521878401C187005E0002914D00027B75290198770491CC9B2A942E7D360460028CED10F98002809D0109901F097FA002804D001205E
:401C8000C4E701208446EFE701F0FAFE2D480021416081600599016021888180022D07D3A1798171A17AC171A1890181218A418100211EE0481C19E082008B00A75AE65AC9
:401CC000BE46BE4211D26F463E80B4461E190296B678BE7001967646E6521719029EBB78B3706646A652019EBE70401CA842E3D3491CA942DED3134822460C300090684609
:401D0000037B0799069800F01BF90028B8D168460B4C007B60700B480C3001F0E1FE0028AED1084907480C3107F0ACFC0028A7D107F0C6FC0028A3D10121217066E700006B
:401D4000880C0020A0100020F8B5054636480F460078002802D002242046F8BD002F60D000243249002D16D02A89D0070DD02868002808D003881B3BE12B04D24088FB28AB
:401D800001D81B2801D2012409E0900707D56868002804D1F7E70020088108604860002CDAD122482E8906811F481B21801D01804180042101711C490020891C0870F0071E
:401DC00005D019480622801D2968FFF794FE1749B00703D56A68144812788270124D0E46AD1D281F0D60486001F0C8FE284601F0B7FE30890EF090F930890DF081FB288870
:401E00000DF084FB30890EF0F1FA03461033FFF783FE1F21C018890140183880A91F88809AE7012498E70000880C0020AC100020FFB58446384F1C460020BB883F7805467E
:401E400002460646002F11D100290ED0029999420BD36146002908D0002C06D00A99002906D02E4B0B99994202D2012004B0F0BD002144E0AB001F19BF78002F3BD0E35AF2
:401E8000002B38D07B43591889B22B0000F04AF8050410161C253100A7782388BC46FF27233BEB37BB4222D26346032B1FD322E0A388002B1FD0302B19D31CE02389002BFA
:401EC00019D0282B13D316E0A289002A13D01346134F233BBB420AD20DE0268A002A0AD033460F4F233BBB4201D2964203D901200EE0002001E000280AD16D1CEDB2099B67
:401F00009D42B7D31C2463435B1802998B42ACD89642AAD8AAE70000880C002079020000BAFF000030B47446641E2578641CAB4200D21D46635D5B00E31830BC1847000060
:401F4000FFB583B0002469460C801F4606468C80002806D00598002803D004983043800701D0012466E0002FFBD03449049809888842F6D3FFF7B2FBFFF7A0FB00F012FC8D
:401F8000002855D100F07AFD002851D12C49084601F03EF905042D0C4AD12A480499066081800021C18007810C98007AC00704D0684601F07EFD040007D10C98007A800726
:401FC00003D501A801F07EFD0446BF1DFEB2002C20D13146059800F05DF804001AD10EF013FA040016D16A461088928808368518144AF1B29088D288AEB29319984207D353
:40200000401B801A80B201F0F3FB050007D000E0FF25012400F05EFA002D04D008E0F8B200F01CF9F6E700F081FA07490120087000F0CAFB204607B0F0BD00008C0C00204D
:4020400081210000B8100020940C002010B503480078012801D101F06DFA10BD940C002070B5084B0446DA889E8800205518B54206D81D68AA182260DA885118D98070BDE8
:40208000032070BDB81000200148008970470000B8100020F0B587B007460D4600208900009006916846FFF7DBFF844600285DD1304800990160002117E02E4B88001A6880
:4020C0000629115406D22C4C0419667882185670628805E0C419203CA67A8218567022891B68C018491C4280C9B2A942E5D300242DE0601CC2B2059025E01E4FA300396862
:402100009600581840887118039604904E88B04217D938466F46FE80B6464F786E4677710297049F4F800168039F5E18767879184E700168764659184E800068029F1818ED
:402140004770521CD2B2AA42D7D30598C4B2AC42CFD36046002809D168460699FFF780FF8446002802D1054900980860604607B0F0BD0000980C0020183A01009C0C002017
:402180007047000010B5002809D005494A68002A05D0011F08788000105801F0D7FA10BD980C002010B50446FFF76EFFC0B2801DA0420CD307484068002808D0A100405856
:4021C00001F036FA002801D00470001D10BD002010BD0000980C0020F8B516460D460446FFF752FFC0B2801DA04203D20020C0430090F8BDB2B2E9B2684601F03FFA00992B
:40220000481C03D0024AA000526811500098F8BD980C0020F8B50746FFF736FF801DC6B20A49002005460C680DE06178002907D06188B94202D32078FFF7B4FF002804D126
:40224000241D6D1CEDB2B542EFD3F8BD980C002010B5002801D0FFF795FF10BD70B506460948002504680BE06178002905D062882078121D0023FFF7AFFF241D6D1CEDB2B8
:40228000B542F1D370BD0000980C0020FFB581B00A9F16000C4620D000F0F2F8054604281BD0002F0CD03846FFF7B4FF20492A0151184860002810D03A460499FFF71BFC47
:4022C0001B4928010E504618778101980570200406D47D20C000444304E0FF2005B0F0BD6404640C00F0BAF80746042807D000F04FFAA0420BD800F04BFA201A03E02046C8
:4023000000F0AAFA0020F06035720020E6E700F03FFA009000F0B6FA00980121001B009000F0ECF802493A0151180098C860E6E7C4100020F8B5060116483418217A0429DD
:4023400003D0E068002802D017E00020F8BD00F01FFA054600F096FA00F0A0F804280CD001010C480F18F8680021451900F0C6F80020F860284600F06FFA6068054D00288D
:4023800001D0FFF765FF042020720020A8516081E060DAE7C4100020FEB500266A46304601232549050169180D7A042D02D0C96800291BD000211154401CC0B20428F0D323
:4023C00000246846005D002830D01B48210108184189476805680291002101604160042241810272C160002E02D015E01354E3E700F054F804280ED001010F480818019052
:40240000C6680021304600F079F801980021C160304600F021FA0126002D07D038460299A847002F02D03846FFF712FF641CE4B2042CC6D3FEBD0000C41000200EB50020F0
:4024400005216A460090118150810348694600680EF03FFE0EBD0000A00C0020074A0020010189180B7A042B02D0C968002903D0401CC0B20428F3D370470000C41000202D
:402480000549002002015218127A042A03D0401CC0B20428F6D37047C410002030B50A4B04200A4C00210A011219157A042D06D0D268002A03D09A4201D808461346491CAD
:4024C000C9B20429EFD330BDFFFF0000C41000207047000030B50020074C05460423020111190B72A5504D60401C4D81C0B2CD600428F4D330BD0000C410002030B5094CEF
:4025000000231A011219157A042D04D0D568002906D02D18D5605B1CDBB2042BF1D330BD2D1AF7E7C4100020002070471CB5002469460C70142001902346054A05480EF02C
:40254000CDFD04480068401C00D1FF2420461CBDA9250000A00C00203EB5124A0146FF2000230124126800290DD0012914D0042908D104206946009308814B8110460EF014
:40258000A8FD80B23EBD6846009304814381694610460EF099FDF4E768460093048143816946EBE7A00C002070B545890468416800890300FFF7B6FC08280509091E222889
:4025C0002628002005F01AFF1EE0022908D0C8B22A4621460CF0E0FE2046FFF739FE13E002202A4621460CF0D7FE2946204600F00DF809E000200EF06BFA05E02046FFF76C
:40260000CBFE01E0FFF78CF8002070BD014B0022DB681847A40C002070B5448905680089022803D0032809D0FF2070BD2246094C0023A46829460120A04708E0FFF7A0FA39
:40264000241DA2B200232946022006F0CEFE002070BD0000A40C002070470000024800214160018041807047A40C002070B50C46002186B016460391012802D0022859D199
:4026800016E003A9012006F005FF01281BD1039D324621462846FFF72EFA0095287801900220694608814E816846FFF7B5FF41E0214D002B686809D0049004A9022006F03A
:4026C000E9FE01281DD0022006B070BD002812D0298840182146FFF70EFA28880024801980B228806988091D884206D12C801348FFF792FF03E00320E6E788421AD96C6077
:4027000018E004986860E278A378110219430B4A698000231060E3565360032313815181A1788170E178C1706178417021780170042028800020C7E7A40C00200411002049
:402740003EB515460C46022803D004280CD000203EBD0091019002206946088107484A8100680EF0B6FC07E00CF016FE044B0022DB6829462046984701203EBDA00C0020A4
:40278000A40C0020014AD16090607047A40C0020034801688068081A0A214843000970471011002010B5FEF78DFF482204490548FFF7A1F903490120C870002010BD000075
:4027C000343A01001415002010B5FEF773FF10BD70B5134C2368002B08D0207B1149C20705D04008400020738868A08070BD88680B4AA18880B29268814203D90A4D691A18
:40280000091802E0814202D2411A5118A160A080A0689842EAD30EF079FC00F013F870BD10110020C0102E40FFFF000010B508461946FFF7A7FF10BD704710B5FFF780FF96
:4028400010BD000003480021016041608160C1607047000010110020024610B5FF20002A0CD0FFF7EFFF064C0321207B0843207310010A21FFF714F82060002010BD000073
:402880001011002000B504480A21806848430209FFF7D8FF104600BD101100200248007B8007C00F704700001011002010B54B490868002802DA4A4B01221A7002229043F3
:4028C0000860484800694549C00B4031096A0246C907C90F0A4259D0012000F0EDFA3F480E216C30FEF742FE3E4820218430FEF73DFE3C4814219C30FEF738FE3948FF215A
:40290000C131A430FEF732FE3648FF212F31B030FEF72CFE33483449BC30FEF727FE31483249AC30FEF722FE30492E48491CB430FEF71CFE2B482E49B830FEF717FE294838
:402940002C49CC30FEF712FE26482B490830FEF70DFE24482949A830FEF708FE214828498830FEF703FE1F4826498C30FEF7FEFD1C481921C9029030FEF7F8FDFEF7F8FD0F
:40298000FEF7B4FEC0B2022812D01FE000290BD0002101420AD0114801216030FEF7E6FD0120FEF783FE97E70121F2E7FF2010BD15491648FEF7DAFD14481549001DFEF77E
:4029C000D5FD124800210830FEF7D0FD54200449C043891C0870002010BD000000F02E40B40C002000002E40320300002F3F00003102000010520000EC160000FA120000D0
:402A000031D000003AE300009956000080012E40F80F000070B50646581C80B245086D00002408E0304600F0C1F81055000A1119A41C4870A4B2AC42F4D3D80705D0D018DF
:402A40002038D15CC47FD454C17770BD30B50A4C002100195B1E07E0541864782502545C2C430480891C89B29942F5DB994201D1515C018030BD000000102E4010B5FF2065
:402A800000F01AFA0F49FF2048700E481021801D41800121417001700A490020C91C4870FFF704FF04000AD100F02EF907210648FEF75AFD044807211830FEF755FD204690
:402AC00010BD0000B40C0020CC112E4070B5002405465B1E0AE0284600F068F8010A161971702D1D1055A41CADB2A4B29C42F2DB9C4203D1284600F059F8105570BD00004C
:402B000070B500210A4D5B1E0AE0541864782602545C344346193480001D891C80B289B29942F2DB994202D1515C4019018070BD00102E40F0B50599091FCFB200217E1E8B
:402B40000BE0541864782502545C2C43164D45192C80001D891C80B289B2B142F1DBFC0712D01C78515C24020F4A0C4381180C809C785D78001D210280B229438418218064
:402B8000001D80B2D9780CE059781A7809021143054A84182180001DD9789B78090280B2194380180180F0BD00102E40014940180088704700102E4010B50B49002048708D
:402BC00000F0A2F8002000F09DF9002000F08AF907210648FEF7C8FC044807211830FEF7C3FC002010BD0000B70C0020CC112E4010B50C48007801280FD100F091FF00F04E
:402C0000DDF8002804D10848016A490849000162054802213030FEF7A9FC02490020C91E087010BDB70C002040F02E4010B50B46062812D006DC01280CD0032801D1FFF788
:402C4000BBFF10BD0A28FCD00B28FAD105480078107010BDFFF712FF10BD1146184600F06DF910BDBA0C0020F8B5244DAC6A0127A007234E002816DA307806280ED1286A5A
:402C8000384328621F480069F903084381B21D481030FEF76BFC042000F00EF9174802212830FEF761FCE00718D000F07BFF01280FD1002000F0C8FF062000F0FDF8104900
:402CC000FF20C91E48707078002802D1686B384368630A4801212830FEF746FCE0050BD53078042802D1052000F0E6F80348FF2101312830FEF738FCF8BD000040F02E4047
:402D0000B70C002000002E4010B503212348FEF72DFC0120FEF7C6FC20483038406A204C80076178800F890001431C480C38FEF71DFC6078002808D0401E0221814018204E
:402D4000FEF798FEC000083800E0B82081B21548FEF70CFC1348032109021438FEF706FC10481149B830FEF701FC612189010F48FEF7FCFB0D480321001FFEF7F7FB0C4907
:402D80000C48FEF7F3FB0B480B496038FEF7EEFB084801218838FEF7E9FB10BD70F02E40BA0C0020D8102E4090890000041E2E40FF0F000058122E402090000004480068EA
:402DC0004007400F022801D0002070470120704700010B4000B5FFF7F1FF002805D009480168C908C900016000BD0748016A490849000162054801690122D20391430161A1
:402E000000BD000000010B4040F02E4000002E400849087806280BD148780749002803D1486B400840004863C86A01221043C86270470000B70C002040F02E4001480078E5
:402E400070470000B70C002002484078022800D001207047B40C002000B50300FFF762F8080D050D0B070507090D012000BD032000BD042000BD022000BDFF2000BD000047
:402E8000074A9168D26889B2064B92B2994204D105498A4201D1012100E000210170704780002E4033D000003FE300000149487070470000B70C002010B50446FEF7FEFB2B
:402EC000072C01D9FF2C01D102480470FEF7F2FB10BD0000B70C00200149487070470000B40C002010B5064A012805D01921C9021046FEF73BFB10BD1D21C902F8E7000091
:402F000090002E4010B50A4A141D012808D009491046FEF72BFB08492046FEF727FB10BD04491046891CFEF721FB0349491DF3E788002E4031D000003AE3000070B50C467A
:402F40000546FEF7D3FBC0B202280E49287804D0FF2810D04C280CD810E0FF2809D10A4AD0680004800F032801D0087807E09069000A553803E00878207070BD4F38207043
:402F8000087070BDB60C002000002E40F0B50122002834D0002932D00424420600D00524792342065B06D21800D0641C034600221EE00C2516466E43124D00277519AF7239
:402FC000104F002ABB51696007D0661EB24209D10D4E86197606760E05E05E06760E8027BE1B00E080269B198919521C2E81D2B2A242DED303480549006B0022886110468C
:40300000F0BD00009C13002079020000C00C002018B50020694608700A48006900280ED0132149014018047E684604704F21C900054800F059F8A04201D0012018BD0020CE
:4030400018BD0000C00C002020110020074900200C2242435218927A012A05D0401CC0B20628F5D300207047012070479C130020F8B50E000446154609D0194F1949786880
:40308000A04202D94018A04201D38D4201D90120F8BD31462046FEF71FFD00281ED02A4631462046FEF727FDE8B200210C224A43D21913895568EE18A6420BD90126641B2A
:4030C0001B1B9672834209DA1469C01A044AC0B220329676491CC9B20629E7D30020F8BD9C13002079020000034610B50020024604E09C5C2018521CC0B292B28A42F8D348
:4031000010BD000070B500F05FF8084C064A216907480D46FEF7EFFC05492846FFF736FFFFF776FF207070BD79020000C00C002020110020002070470020054A002902D09E
:40314000012902D002E0906000E0D06000207047C00C002070B5084C154608460549E26889182A46FEF7C7FCE0684019E06028B270BD000020110020C00C00203EB50A22E7
:403180006946FFF7E7FF044606480A2200686946FEF7A2FC002802D00020C0433EBD20463EBD0000C40C0020002802D0044A914201D2FF20704703494A61086100207047B2
:4031C00079020000C00C0020024800218160C16070470000C00C002070B5074C15460548A26880182A46FFF743FFA0684019A06028B270BD20110020C00C002010B5034938
:403200000A220968FFF7E8FF10BD0000C40C002010B50F4A002313600E4A13600E4B18600E4801600E49012008600E490860000290600E490C4808600D4914300860FF3873
:403240001538506000F0BCF800F0CAF9002010BDF40C0020DC0C0020080D00200C0D0020F80C0020E80C0020E4140020EC0C0020000D0020014610B50020002910D0094B59
:403280001A689C685118A14209D25868196080188A0704D08A07920F891A091D196010BD002010BDDC0C0020F8B50024164E671E321F3D463168136806E014226243103250
:4032C0008A58521C1BD0641C9C42F6D36A1C14D02C461422544322460C3288500C214843FFF7C8FF3168002808510AD031680020103408517068401C70602846F8BD2546F4
:40330000E4E73846F8BD0000EC0C0020F3B50026F64381B000281BDB1E490968884217D80299002914D01B4F142204463F1D54432546396810354859401C09D0FEF7BEF938
:4033400038682F1F4159C359994203DBFEF7B2F93046FEBD214608310091465801590C20704308180C220299FEF7C5FB0948761C001D0068C159B14200D100260549009A25
:40338000091D865008684159491C4151FEF792F90020FEBDE80C0020002803DB07490968884202D90020C043704704491422091D096850431030085870470000E80C002043
:4033C000F0B500200D4A451E0346171F50600FE014260146714314680E1DA3510C461668083433511668083435511468401C635039688842ECD30020F0BD0000EC0C0020F6
:40340000F3B50026F64381B0002841DB2349096888423DD8029900293AD0204F142204463F1D54432546396810354859401C2FD0FEF744F93868415900292BD0211D0091F8
:4034400046580C21005971430F46C1190C220298FEF751FB11480021001D0068761C00590C34C0190160416081600C48001D00680159B14200D100260849009A091D865052
:4034800008684159491E4151FEF714F90020FEBD3046FEBDFEF70EF9FAE70000E80C0020FEB504460D4600201E49089E0860471E009001900290002C11D0486885420ED2A9
:4034C000002A0CD0002E0AD0642E08D808460C3001681C2068430C18207A002801D03846FEBD0120226020721846FFF7DDFE6060401C13D06681A6810A4827610C30676133
:403500000179A94200D205710021684601810A462846029B00F040F82846FEBD00202072DDE70000F40C002038B50124009400F039F838BDFEB50027164EFF433D46002468
:403540000EE01C20316860430818017A002906D04068FFF721FF002801D0254603E0641C3079A042EDDA681C12D01C2130684D434419FEF7A3F869466068FFF741FF0546C4
:40358000FEF798F8002DD9D1216868468847D5E7FEBD0000000D002038B50024009400F001F838BD1FB500220C49541E0A60002811DB496888420ED808491C220C310968A9
:4035C00050430818406801A9FFF7A0FE401C02D0002004B010BD2046FBE70000F40C0020F0B50021114A4D1E174611710C3F0B46BD6016E008461C2460431668041D35518B
:4036000014680646235014680836A3551468361DA353044616680A34335318301468491C255078688142E5D30020F0BD000D002038B500210091002811DB0F490978884203
:403640000DDA0D4D04010C3529680859002807D0201D0818694600F06FF9002801D0002038BDFEF72BF828680F34015D491E0155FEF720F8009838BD100D0020F7B582B0A5
:40368000002502986E1E06602E48D21C024017462D4A2C4610460C380178106805E02301C358002B0FD0641CE4B28C42F7D3711C28D03401211D40180191039900F02AF975
:4036C00000281FD101E02646F1E71F48016820460C300F521C480399026820460E30115419480399026820460F3011540398784300F0A0F8144900280968085102D00024B3
:40370000009011E001251AE00F48016801980818009900F02CF9002801D0012502E00098C0190090641CE4B203988442ECD3002D05D10298066004480179491C017128467B
:4037400005B0F0BDFCFF00001C0D0020F8B50D4600216A468C461180002839DB23490978884235DA214B04010C3319680A59002A2ED020460C300B5A801C0E5C1846704393
:403780008018954224D3854222D2002006E007465F43BF18AF4206D0401CC0B2B042F6D36046002814D0114E271DC8190C366A46294600F006F900280AD1684600880128E4
:4037C00008D030682946C01900F0D1F8002803D00120F8BD0020F8BDFDF770FF30680F34015D491C0155FDF765FFF3E7100D0020F8B50F46002400F031F8002817D10C4948
:4038000000220B460C334A600EE021011D680E466A501D680C36AA53B61C1D680F31AA551D68641C6A54E4B2BC42EED31A71F8BD100D002000280BD0C01C074A8108506829
:40384000890053884118994203D89368516018187047002070470000100D0020F8B5064600200F4D009029700C0121466846FEF7F7FB00280CD129460C3100980860301B8B
:40388000001F84B221466846FEF7EAFB002801D0FF20F8BD6C800098A8600020F8BD0000100D0020F8B5002827DB19490978884223DA174C05010C342168485900281CD0F1
:4038C00028460C30085A009028460E300E5C401C0E5420682F1DC01900F064F800280CD12068002445590EE0094829460C300068C01900F03CF8002801D00120F8BD00985A
:403900002D18641CE4B2B442EED30020F8BD0000100D002030B50D4604000BD0A800FFF789FF6060002805D000202570C0436080002030BD012030BD70B50D46040005D065
:40394000002D03D00220205E002801DA012070BDFDF7B4FE0221615E60688900405828606088401E6080FDF7A5FE002070BD70B50D46040007D0002D05D002212078615E84
:40398000401E814201DB012070BDFDF797FE6088401C00B26080616880000D50FDF78AFE002070BD10B5040009D0227800216068FEF7AAF80020C0436080002010BD012021
:4039C00010BDF0B500231D46002802D00224045F0AE00120F0BD46689F00F6598E4201D1012503E05B1CDBB29C42F4DA15700020F0BD00000148007870470000240D002082
:403A00007CB505460024FEF7BBF8A8796946087000A8062229460130FEF76DF80021684604F0B2FF0C2806D0072806D01F2806D0122806D006E0022404E0042402E0272437
:403A400000E0012420467CBD01480121417270471C16002010B502280BD0032802D0042809D102E000F07EF905E000F029FAFF2801D100F039FAFFF7E1F9FFF7EDF910BDD8
:403A800010B500F061FAFFF7D9F9FFF7E5F910BD70B504460025FEF773F8002C06D0A079012803D8214602F0DFFD00E00125284670BD01460120002902D050200880002029
:403AC0007047000001460120002905D003485422007850430880002070470000260D002010B502460D49FE204870032410460DF013FE002810D10DF0B7FD00280CD105F0B3
:403B000025FD002808D100F02FFC002804D105F0E1F9002800D10024204610BD240D002002480021018280210180704700102E4070B50025044600280ED0A07901280BD8D6
:403B4000FEF71EF8A0790028204602D003F068F903E003F03DF900E00125284670BD0000014610B50120002904D006220248FDF7C2FF002010BD0000300D002001460120BD
:403B8000002903D0087802490870002070470000260D002010B5FFF751F9012801D1FFF753F910BD0148007A704700001C16002038B504460120002C20D0617801291DD855
:403BC00000290BD0FF25E535FDF7DAFF0C4828180088C0B22070072803D00EE0FF25CD35F2E70020694608706846FFF749F969460878012801D108202070002038BD000085
:403C000000102E40014A002192681047240D002008B500226B461A7026280CD0094A342852680BD0352805D1900703D50021352005F068FD08BD19462620F9E7D007F9D014
:403C40003420F5E7240D002001490872704700001C160020F8B504460120002C26D06178012902D92278092A20D8002905D0FF25E5352078092803D004E0FF25CD35F8E758
:403C800008202070FDF77CFF2078114F114E08280DD00020FFF736F970780128207810D00D4969180880FE2070700020F8BD0120FFF728F90720B881054920318880012019
:403CC000F2E7B8810248217820308180EBE70000C0112E40240D002000102E4070B50E46050001D0002400E00C4C002C11D0E28A500609D5D107C90F022003F02FF9E08AEF
:403D000040218843E08204E0D107C90F012003F025F93146284602F003FE70BD7C150020F8B50546002004460D4E009013E022466946284601F0FEF80098002801D00DF03F
:403D4000CDFCA878214602F0CDFBA878214602F0BBFB641CE4B2308AA042E8D8F8BD000048160020F8B54E4CFFF768F8012847D14C480078002843D002F05AFD00283FD0C0
:403D800004F0A4FA00283BD0474E7078C00703D000F01CFD012833D0307E00287DD17078002500285BD0000706D540488089070B00F02EF9384370D13B484178684604F038
:403DC000CBF821793A4CA2788918C9B2814262D802F02EFD002860D0344860300789324E203602F06FFB6846008802F099FB02F035FC30490988884203D10120FFF75CF878
:403E00004BE02D49012008702748807B00281DD0002F1BD04036F07E002817D123486030008821494000C031498981420AD26078002807D103F0C0F82049088A0322120275
:403E4000104308822078002800D0257002F09EFB0120FFF72BF800F025FC174C15E002F0E7FC002819D0102402F0F8FB214602F0E1FA02F055FB104C0120207002F086FB1D
:403E80000020FFF713F800F00DFC20780128B4D1FEF7A0FF25700020F8BDFF20F8BD000054150020B40C00205C150020A0102E404A0D00205C0D0020360D0020E0112E40F6
:403EC00010B50848FF244078002809D102F0B0FC012805D1FEF78CFE0720FEF7EDFF0024204610BD5C15002038B5FEF7A7FF012801D0002038BD02F09BFC00280AD0114C45
:403F00006078C00703D000F061FC012802D0207E002801D0FF2038BD617800290FD0684604F01AF8022806D96846008802F0F8FA012002F035FB0320FEF7BEFFD9E700206C
:403F4000F7E700005C15002038B51E4CFEF776FF042813D0052811D0062812D003282AD007280AD100206946087002460120FEF75DFEFEF763FF0128FBD138BD00F0B2FBD7
:403F800038BD02F025FB00F0ADFB02F0A1FB8007800F0228F4D10C4841880029F0D05B21095D0029ECD101210170A07D0140022002F0D4FF38BD02F00FFB0120FEF77CFFA7
:403FC00038BD00007C1500204A0D0020F8B50646002403F031F80546304603F047F803460A480021068A0DE001228A401046174628401F40002803D0002F01D1224394B231
:40400000491CC9B28E42EFD82046F8BD4816002070B500252C460A4E03E0002C01D0002000E030460079002803D02046FFF7CEFF0543641C2406240EEFD0284670BD0000EB
:404040007C1500201CB50020694648706846FFF7AFFD01AA69460A20FEF7E8FD6946042008561CBD70B50D4601F04AFB04000BD02079002808D0FDF783FDE178A0782A4604
:4040800002F0D4FC002070BD022070BD0148007870470000541500204030C07E002800D00120704700B500F001F800BD902148430749084A40186030417F491CC9B24177AA
:4040C000D289914201D300214177C8B2704700005C1500204816002013B501F011FB04000BD001F0AEFE002807D0214601AA0A310620FEF79BFD00201CBD02201CBD000071
:4041000010B50C4601F0FCFA00280AD001F099FE002806D0224604490A20FEF787FD002010BD022010BD00003D150020F3B581B0074601460026029802F076FF0446002F46
:4041400001D0002500E0154D002D21D0284601F00DFB032C04D13946029802F0C1FF06463846029902F0B0F9032C06D0002C10D00121384601F000FC03E03146384603F04A
:40418000B5F9284602F08EF80221284602F0A4F8FEBD3846029902F097F9FEBD7C15002010B5044600F066FA002804D103F068FE002801D00C2010BD2078611C02F038FDA7
:4041C000FF2801D01F2010BD02F07EFDFF280AD02178621C02F000F9044821780068026B601C904710BD072010BD0000700D002010B503F045FE002801D00C2010BD02F001
:40420000F9FC03480068C06A8047002010BD0000700D002070B50D46044610210DF09EF91021601806460DF099F9334610221946204603F053FE102130460DF08FF902204E
:404240002870204604F07CFD70BD0000F8B504464078217802028006870FE0781143A67809050002090D0643084601F049FA00210546F2B2002812D0002C10D0022F0ED04E
:40428000032F0CD0002A0AD00279092A07D0002A05D0134A5A23527E1B5C9A4207D82889002104F082FC20460DF018FAFF21002914D10C4822460068294643693046984711
:4042C000C0B2FF280AD128464030817EF2B2491C8176FF232146284600F0E3F8F8BD0000141500208C0D00200020704710B5044603F0C6FD002801D00C2010BD2078611C51
:4043000002F096FCFF2808D002F0CEFB044821780068426B601C904710BD1F2010BD0000700D002010B500F06BF904F0D3FD002010BD10B5044600786178E2780843A17894
:4043400011430843217908436179084305D003F089FD002803D00C2010BD122010BD204602F05EFD002010BD10B5FDF7BFF902F085FE044803F0E8FE02F0A0FB012000F00A
:4043800003F810BD24150020F1B586B003A8009005A8019028489F22817A114081726846FDF70CFC002845D169460989C90705D0224806990068C2686846904769460989E8
:4043C000890706D5002835D11D480068816A0698884700282ED11B4E0025757075737571F575357675767575B570F570B5713746F5730120D03738731F20F880FF213046F8
:404400007972A0300176457600F0DCFA00242046069901F0C1FC002803D1641C2406240EF5D0FD720749BD72B573C0310D704D704D600D7207B0F0BD141500208C0D002082
:40444000700D00205C15002070B505460E46084602F0F2FD0446304602F008FE0121A9400A46224001400A4301D0012070BD002070BD10B50446084602F0F8FD0121A14065
:40448000014201D0012010BD002010BD10B5FEF7D5FC032804D102F09FF80120FEF70CFD10BDFEB51C4616460F46054601F0FAFEA878FFF7F7FD02460190334639460094A4
:4044C000284600F00DF8002808D1A8780199FFF705FCFF2C02D138460DF000F9FEBD0000FFB585B005460E980C46FF2810D02B49C00009680A5840180179C07952788142A8
:4045000001D9012601E09006860F6846038108E06078A1788006860FE0780002014368460181284601F098FC070007D021462846079A00F093FC384609B0F0BD304600F06A
:4045400041FD04AE0346039002AA29460096204600F0CDFB3C20405D002818D0284601F07BFC012813D0684600890096C0B20190A878231DFF22079902F086F9684600891C
:40458000039BC2B2A878079902F0C6FCD3E7684600890021C0B20091E9E70000880D0020F8B5002600253046FFF710FD07001DD090201149704340186030447F12E0601CA0
:4045C000FDF76EF9CCB23846E040C007C00F07D02146304601F06EFF21463046FFF7A6FD6D1CEDB20548018AA942E8D8761C3606360ED7D0F8BD00005C15002048160020FE
:4046000010B502F05BFA0020FFF7BEFE0DF0FCF8002010BDF8B5002400F0D2F80123012800D10124104F00203E4620360425082203E0002801D0002100E031460979002945
:4046400007D001290BD002290BD0114681402143CCB2401C0006000EEBD07C70F8BD1C43F7E72C43F5E700005C15002010B5FFF7D1FF10BD10B5044604F07EFD002802D1A8
:40468000601C00F001F810BD1CB500240094062269460194FDF720FA002800D1122420461CBD000070B50E4CFCF757FF0546FEF7C5FB062802D02078012803D02846FCF79A
:4046C00050FF70BDFCF700FC2846FCF74AFFFEF7B5FB0628F5D020780028E5D170BD0000360D002010B5FCF738FF0446FEF7A6FB012809D0FEF7A2FB022805D0FCF7E4FBD3
:404700002046FCF72EFFEEE72046FCF72AFF10BD10B50B4681791943817103D08078114602F0C8FB10BD10B582798A43827102D1807802F0D3FB10BD30B50C4C0220A28A6A
:404740000B4B9978002901D0022906D11D785B78EB18282B01D9032002E0032900D101205105490DC0020143A18230BDC0112E40400D002000B500F029F8002807D00128BF
:4047800005D0032801D0042801D0002000BD012000BD014600B50020C90701D000F010F800BD014600B50020C90701D000F008F800BD00000148006870470000380D0020C7
:4047C00001480088000A704720102E400448008B410501D5042070474007800F7047000000102E400148406870470000380D002038B50446000610D5FFF7E8FF01280CD19E
:40480000684601F0F9FE6846007800F02BFB012001F0B0FD0220FFF729FF600708D507480179012904D1002101712620FFF7F0F90348006801692046884738BD440D00202B
:40484000700D002010B501460A4A007800241070FFF7B6FF0128084603D002F04DFA204610BD00F0E7F80400F9D1034801210170F5E70000400D00201C16002070B5044639
:40488000FFF79EFF002801D00C2070BDA27B01211F48002A827801D00A4301E05208520082706279012A14D0C17849084900C170184D2868016820468847207901280CD08D
:4048C0006188208803F08EF82080207904280FD015E0C2780A43C270EAE72868C168E01D8847E01D02F088FA0B48808C208006E02868C168E01D8847E01D02F07DFA0749D5
:4049000020798870204602F005FA002070BD00005C150020700D002014150020400D002008B50178FFF74CFF814201D10C2008BD002914D0072069460870FFF71BFF0128CD
:4049400007D10121684600F0E5F8012801D0092008BDFFF7F1FE02F011FA012011E0FFF709FF012806D1684601F046FE6846007800F0ACFA02F0F8F9FFF722FF0028FBD15B
:404980000220FFF773FE002008BD000010B501460A4A007800245070FFF712FF0128084603D002F067FA204610BD00F065F80400F9D1034801214170F5E70000400D002074
:4049C0001C16002038B568460CF01EFE002801D01F2038BD01210098C90201804180002505714571857107214173857302F092F9009C202200212046FDF786F825702A464A
:404A00000021601CFDF780F8204602F075F9204602F030FA00980CF061FE062200210448FDF772F802480C388560002038BD0000440D0020F8B5044600250D4800950078C8
:404A4000012806D068460CF0DFFD002803D007250CE00C250AE0074E009830602278611C401CFDF748F83168207808702846F8BD1C160020380D0020F8B5044600250D486B
:404A800000954078012806D068460CF0BDFD002803D007250CE00C250AE0074E009870602278611C401CFDF726F87168207808702846F8BD1C160020380D0020034608487A
:404AC00000B5834209D8184600F01AFE002804D00089984201D1012000BD002000BD0000FF0E0000074A9179491C8906890E917138220A4092014907090E1143084302498C
:404B0000084070475C150020FF0E0000C006C00E70470000F8B507460E4600240D4803E0002C01D0002500E005462979002905D0641C2406240EF3D00020F8BD00212046FB
:404B400001F02AF92E712046FFF7CCFF28813C700120F8BD7C15002010B503F0F3F90222002100F003F801F055FF10BD10B5094B40074907000F090F185A595A40185043B2
:404B8000C0086421FCF78CFE002800D1012080B210BD00007C3A0100F7B53D20405C88B015460C46002802D02878042802D200200BB0F0BD6946087200262046FFF76CFA9E
:404BC000012800D00126204603A938300191009023460327A17E34333246206A03F0CEFA02A8089900900B46019120463A4603A9243003F053F902466846007A28702046D2
:404C000001F0B6F81046D3E7FFB587B00C4605461078694608723D20005D1746002826D000262046FFF738FA012800D00126204603A93830019100902346A17E3433324680
:404C4000206A03F09BFA02A80090291D019120462B1D03A924300A9A03F020F902006846007A388002D1204601F082F810460BB0F0BDF0B505463C20405C89B016460C469F
:404C800000280CD0307869460873002806D000272046FFF701FA012803D003E01F2009B0F0BD012703200890204604A93830019100902346E17E34333A46E06903F05EFA5B
:404CC0006846007B03A928180290009120462B46019504A92430089A03F014F902466846007B3070204601F04DF81046D7E7FFB505463C20405C89B016460C46002810D0C5
:404D0000084601F0A9F801280BD0308869468883002809D000272046FFF7BEF9012805D005E000200DB0F0BD0220FBE70127204603A93830019100902346E17E34333A46FE
:404D4000E06903F01BFA291D2B1D07A8129A6D4607C5204603A924300C9A03F0D3F802466846808B3080204601F00CF81046D9E770B50D460446FFF78FF901280AD0E87AE9
:404D8000A97A00020143A07801F030FD012808D0002070BD00222421204602F075FD242070BD28214C200155204600F0B1FB282070BD0000002801D0002000E0034840302E
:404DC000C07F012800D00020704700007C1500200146002049070ED50021084B03E0002901D0002200E01A461279022A04D0491C0906090EF3D07047012070477C1500208D
:404E00000146002049070ED50021084B03E0002901D0002200E01A461279022A04D0491C0906090EF3D07047012070477C15002010B5044680346068002803D00CF062FC2C
:404E40000020606010BD4030417070474030817070474030017070470171704792001018C166704770B53C2501F09CF9040004D020460021433001F059FCFF222946204622
:404E800000F0E8FB002C02D0A07801F00DF970BD10B5002801D0002000E00348002802D0008903F0C9FE10BD7C15002010B5002801D0002000E00448002804D00179072971
:404EC00001D100F047F810BD7C15002010B501F069F9002802D0807801F0E6F810BD00207047000070B50546008A00281ED01049F122897A1140C90618D5294640314A8A76
:404F0000098A521C4A4392B2D10800D10121540801E0621A94B2A042FBD9FEF76BFD012804D1298AA878224601F036FD70BD00001415002010B50023054C0B60248A9442C6
:404F400004D992001018C26E0A60C36610BD00004816002038B5044600200090A079002814D14020015D052901D00E290ED168460CF05AFB002809D12046009902F062FC5C
:404F800003481021C28A2046FFF7C2FB38BD00001415002010B50B4604460146184602F0D3F8002802D020460CF0A2FB10BD13B5044601AA11460620FDF738FE684681882F
:404FC00061811CBD002800D10220704770470000F8B504462346401D543300909A1EA078911E01F025FB25464035A88A298A8000FCF756FC401E81B2688A884203D969826B
:40500000A07801F0E5FF698A8C20015120460021433001F08BFB27480088E88102F092FFE989891C8AB26179FFF7A0FD01F0F2FC02F088FF2A8A6179FFF798FD074601F0CF
:40504000DDFC688A002806D01B49088A032212021043088202E0002001F0AEFF1648803801886E8A002E0CD0304648431349FCF701FD0004000C01D0401C80B2104948803C
:4050800002E00F4800214180288A704381B2A07801F0FEFEFF2228374932B9B21346204602F0A4FCE98AA07801F072FEA07801F02BFAF8BD80102E40E0112E4071020000E2
:4050C0004A0D00207FB504468034616805460E46183108226846FCF70EFD31462031082202A8FCF708FD102168460CF037FA6068102108300CF032FA60682B4608302433BF
:405100001022694602F0EAFE7FBD10B504460821FFF709FB10212046FFF705FB207905281FD006281DD008281AD12189002003F0FBFC072020712046FEF7AEFF01462046AD
:405140004030012913D00E21017000210176204600F0BCFF2046FFF76BFE2046FFF7C2FE10BD20890122002103F0C2FCE1E70521EAE70000FFB581B01F4604460821FFF7AB
:40518000D2FA10212046FFF7CEFA2079082803D0092804D0042203E00422012501E009220025204600F044FE264600204036307022712046FFF73CFE0398002D02D0012881
:4051C00008D00BE001280AD120890022029903F08FFC04E02189029803F0A6FC012700203076012F04D0204600F070FF05B0F0BD02983073204602F073FB05460548012171
:40520000C28A2046FFF784FA002DEFD109202071ECE700001415002070B50C460546FEF73BFF012809D108212846FFF77CFA0023012221462846FFF79DFF70BD10B50446A5
:4052400000F0F6FD2046FFF7F3FD00214034217010BD70B505461A24FEF71EFF012809D108212846FFF75FFA0023012221462846FFF780FF70BD0000F8B5044600200090FF
:405280000E4668460CF0D0F9002801D00D20F8BD8420005908212030009D00F02CFA20460421383000F027FA002E02D1204600F0FBFD2946204602F054FA0E480821C28AF0
:4052C0002046FFF725FA204600F071FF25464035002808D0204600F023F8002801D0092028700020F8BD08202870204600F0DAFFF7E7000014150020014610B540310A46AA
:405300000978082906D0092907D00A2901D100F091F810BD0B20107010BD00F001F810BD70B50446007925464035052805D0062803D008280FD00C2070BD0322062120467E
:4053400002F0A2FA0D480821C28A2046FFF7E0F91120287010E006202873204602F0C0FA0646AA8A0A20424301212046FFF7D0F9002E01D109202071002070BD141500204E
:4053800038B504460020009068460CF04DF9002801D00D2038BD2046009D00F0C3F908202071204600F080FD2946204602F00CFA00213D2001550F2040210855204600F0DC
:4053C00071FF002038BD00B5024600F031FD10214032117000BD10B50446FEF75DFE012809D04020005D112805D100231A4606212046FFF7BFFE10BD10B5FFF786FE10BD63
:4054000038B504460021684600910CF00DF900280CD12046009902F058FA05480821C28A2046FFF775F90D204034207038BD00001415002038B504460021684600910CF0FD
:40544000F3F8002801D00D2038BD2046009902F031FA05480821C28A2046FFF759F90C2040342070002038BD1415002000787047F8B5002569460D70002801D0002400E0E2
:405480001F4C002C18D0204600F0DBFC002813D0207903280BD005280CD026464036B18AA07801F0FFFCB078012806D01DE0042020711DE006202071F8BD0021204601F0B2
:4054C00060FE274680373868002802D00CF01AF93D600020B0702079072802D12046FFF701FD0221204600F0F7FE20790428E3D1207A694608703420FEF78AFBF8BD000084
:405500007C15002010B54C22115400F052F810BD10B50446FF21FFF706F909202071A07801F0E6FC10BD000038B5FF216A461180002801D0002400E00B4C002C12D011467E
:405540000620FDF773FB684601882046FFF72FFD204600F087FC002804D104480068C1692046884738BD00007C1500208C0D002010B504468079002809D022214C2001558E
:40558000FF212046FFF7CFF8204600F012F810BD10B5037902464032002B03D01173092B02D003E0002100E02221117300F001F810BDFEB504460089002700902781207919
:4055C00026464036002817D0012815D002280AD112E002AA01A9204601F0A4FD002807D101980CF085F8204601F0C4FD0028F0D02046FEF795FBB776254680352868002865
:4056000002D00CF07FF82F606868002802D00CF079F86F60317B002919D0009800F064F8A078002100F092FF2046FFF795FAA07801F0C6F8A07800F037FDFF212046FFF7CA
:4056400072F80B20FFF712F800F068FCFEBD1F213173E2E7F8B517460E46054602F06EFC04003CD020460C3001F050F82046062200211830FCF748FA2046062200211230CC
:40568000FCF742FA1648224600683946436A28469847074626702846FEF7FEFC012148406070002D10D02889608028464030C1782171002E0FD169796171018AE180418A9A
:4056C0002181808A608106E00648008BC005C00F2071002060803946204603F0A8F9F8BD700D002000102E400A4610B50146002003F0BAFA10BD10B50BF00CFD10BD00006A
:4057000000B50146FFF702FA002801D0002000E00348002802D002898A4200D0002000BD7C15002038B5044680346068002806D168460BF089FF002801D10098606060688B
:4057400038BD000010B5014600F086FB0128887802D0FEF7ABFC10BD90214843024940186030007F10BD00005C15002070B5054604464035A87F012811D1A1789020084A8B
:40578000484380186030067F3046FEF75DFE002805D10220A877A078314601F0CBF870BD5C15002010B50C4CA07A002813D0FEF7F7FE0A48027F417F408B00F0B7FB012856
:4057C00009D10020A07200F02DFF05498989090B01D000F03BFA10BD2C1600205C150020A0102E4070477047490510B5490F0B00FCF798FB060704080C0C0F073E21FFF733
:4058000081FE10BD0821FFF7C3FE10BDFFF7D1FE10BDFFF7ADFE10BDF8B507460025002D01D0002600E0204E00F0A6FE3046403044890021418100F0C3FE304600F001FBA1
:4058400001282BD1A00702D52846FFF711FEE00602D52846FFF768FEA00601D5FEF7A0FE600601D500F014FB200602D5284600F01DF8600702D5284600F02CFA380402D5FC
:405880002846FFF713FB780402D52846FFF700FBE00703D021463046FFF7A6FF6D1C2D062D0EBCD0F8BD00007C150020F8B5002801D0002400E0284C002C4BD02546403564
:4058C000A878012846D1FF278820493700593E46002805D02149897A890601D5878AC68A2046FEF7D9FB012834D002F02BFB2A8A6179FFF73BF9009001F080F800983346B7
:40590000283081B23A46204602F070F8E98AA07801F03EFA12480188688A124E002810D048431149FCF7A6F80004000C01D0401C80B27080A07DC107C90F002001F00EFBFF
:4059400001E000207080288A698A484381B2A07801F09EFAF8BD00007C1500201415002060112E404A0D00207102000001490968096808478C0D002070B50D460026194A85
:405980000146002801D0002401E014462034002C26D0204600F060FA01280AD19020484380186030007FFEF74FFD002801D101F017FF0D48006881692046884700280CD01A
:4059C00020464030817EA94202D3491B817600E086762089294603F0E8F8204600F062FC70BD00005C1500208C0D002070B503460088FFF785FE040013D000F022FA00283B
:405A00000FD02079092819D02546997840352973204601F065FF0646A878012803D0AA8A02E0022070BDEA880A20424301212046FEF76EFE002E01D109202071002070BDAE
:405A40000EB5002217216B460292198100905A810120029B00990BF0F5FE0EBDF8B518480024807A002822D1164E0025B089000B22E0204600F074FE1249A03940180788B7
:405A80002A462146384600F051FA012810D00E480122478305770A4944778A72002D01D0002000E02030002801D000F0FBFBF8BDB089000B641CE4B20028DAD1F8BD0000C0
:405AC0002C160020A0102E405C15002010B50088FFF716FE002809D0014640310C460978082905D00B2903D00C2010BD022010BDFFF716FC002801D009202070002010BD16
:405B000070B503460088FFF7FBFD040008D0254640352878082805D00B2803D00C2070BD022070BD8420005910220830991CFBF7E2FF2046FFF7C6FA2878082804D020465D
:405B4000FFF778FC002801D00A202870204600F0A9FB002070BD000010B50C46002121700088FFF7CDFD03000BD000F06AF9002807D00948F121807A0840C00603D4112005
:405B800010BD022010BD022020701A8A1889002103F086F8002010BD14150020F8B50F46002100910088FFF7ABFD040012D000F048F900280ED0E079410641D4617E0226B7
:405BC0004A07002A08DB8907402500291ADA2843E07135E00220F8BD02F0B0F90021017021894180A1898180217E4170E189C1803E7005460178134802F02CFD284602F087
:405C0000F3FF1DE0204600F02DF9012806D068460BF00AFD002803D00720F8BD2A20F8BDE07900992843E071204601F083FE607E0421304360760448C28A2046FEF768FD4A
:405C40000020F8BD1D040000141500203EB500220F236C460292238100910190628169460EC900200BF0EEFD3EBD0000F8B50F46054600F097FA040025D003202071254642
:405C800000264035EE76E6702046FFF7A1F901F06BF80920FEF7EAFCA07800F07FFD0121204600F019FB2E706E70AE703A4600212046FFF7CFFC0649887B401C8873A0780E
:405CC000FFF754FEF8BD284601F012F9F8BD00005C15002010B5002801D0002000E0094800280DD0014640310A464978022901D100215170807DC107C90F002001F02EF966
:405D000010BD00007C15002070B503460D460088FFF7F6FC04000BD000F093F8002807D01248F121807A0840C00603D4112070BD022070BD20464030418A008A491C41434F
:405D40000804C10C5888884201D2122070BD20822079072802D12046FFF7C4F8022028702089002102F0C4FF002070BD14150020016A491C016204D1817E491C4906490E38
:405D800081767047C169491CC16104D1C17E491C4906490EC1767047F0B5074687B003A8009005A800260D460190002F01D0002400E01B4C002C05D06846FBF7FFFE00282B
:405DC00003D00BE0022007B0F0BD68460089C00704D1902200212046FBF796FE114829460068826820469047050016D1A77066762746267140373E70204600F019F82046A1
:405E000001F0B4F9084820820848BE77807AF121084000D001202075E682E8B2D3E700007C1500208C0D0020B80B000014150020002101628176C161C176203001774177ED
:405E400070470079002805D0012803D0022801D001207047002070474030807F002800D00120704740300078002807D0012805D0052803D00E2801D0012070470020704775
:405E800010B5807801F0F2F8002800D0012010BD10B500F0C7FB03498989090B01D0FFF7D5FE10BDA0102E4070B5054604464035A87F002825D1FF206075A0789021154A66
:405EC000484380186030417F9023491CC9B24177A0785843104B8018DB896030994201D300214177A0789021484380186030467F0677A1783046FEF7A7FA002802D00120C4
:405F0000A87770BD0220A877A078314600F012FD70BD00005C150020481600200020401C0006000EFBD0002070470000F0B515468207920F85B0000A02926A469080002DEE
:405F400001D0002400E0564C002C28D0084600F007FC07466846808800280BD00298012843D0022841D003280BD03D20005D012879D08FE04B48381801882046FFF717F8B6
:405F800088E00020029002A80BF02EFB002807D03D20005D012802D12046FFF7E9FE7CE06846029E8388324600213846FCF732FD3C48381801882046FEF7F9FF284600F005
:405FC000B5FA01AA21463046FEF7E6FD002806D030460BF079FB3D204C21085531E0F5773146204601F02AFA57E0002000902089039068460BF0E8FA002802D0002005B09C
:40600000F0BD6846009E8388321D00213846FCF701FD2448381801882046FEF7C8FF284600F084FA2046FFF70CFF002805D025464035287E002810D107E030460BF03AFBBA
:406040002BE02046FFF764FA27E001AA21463046029BFEF7D9FD002806D030460BF02AFB3D202873EDE712E00298FEF7AFFF0399317003990001090A01437170684680880D
:40608000B070000AF0703046FFF7DAFC05E02046FFF76EFE284600F049FA0120AFE700007C15002000102E4010B5074A917B002901D0491E91730021FFF76EFE002801D0DD
:4060C000002010BD012010BD5C150020F8B5074606464037B87F00282DD0B078902100904843234945186035287F0099FEF7C1F901281ED0287F401CC4B21E48C089A042B9
:4061000000D800240020B877FF276F772F77A87702460146009800F079FD717DFF2903D0304600F0E4FF777501F05AFB0025114F19E00320B877F8BD002000902246694606
:406140003046FEF7F7FE0099002904D0FF231A463046FEF7A6F9641CF889E4B2A04200D800246D1CEDB2F889A842E5D8F8BD00005C1500204816002010B502460021084B93
:4061800003E0002901D0002000E018460479944204D0491C0906090EF3D0002010BD00007C15002000B50120FFF7E6FF00BD10B5044601F0C3FE2189018080346168416019
:4061C00061682831816002F0C9FC10BDF7B50646087982B00C46092807D0A078F0770846FFF73AFE012806D010E030460BF080FA022005B0F0BDA1789020294A484380185B
:406200006030007FFEF720F9012810D0A078FEF7D1FD01280BD037780121304601F08CFA25462035062F38D00B2F0FD107E06846027C21463046FEF7ADFE0D20D9E72046A1
:40624000FDF72AFF012801D1002028772046FFF779FA054604AA21463046FEF70AFD01205F2108556946097C002001910090A07833463A46294600F007FB69460A7CA07873
:406280000323294600F048FEA0782946FDF726FD30460BF02DFA0020ABE70120D5E700005C15002010B502464032937F0021002B03D1927E002A00D00121064A927A002A5A
:4062C00000D000210279092A00D10121807800F065FE10BD2C16002070B50C460546FDF7DBFE00280BD1012C06D92879092806D02846FFF7C5FD0446002C02D004E00124D4
:4063000002E0A87DC007FAD1A87DC107C90F204600F024FE70BD0000012807D0082804D104480282034808300180704701488038FAE70000A0102E40014908817047000040
:4063400000102E4010B50446FF20F130012C01D1FF20D530002200F053FE044A108A044980B2A0430880108210BD000000102E404E0D0020034B198A034A89B281431180D2
:406380001982704700102E404E0D002010B50446012802D0082C07D102E0FF20D53001E0FF20F13000F024FE0348018A034A89B221431180018210BD00102E404E0D0020A7
:4063C000034B198A034A89B2014311801982704700102E404E0D0020F8B505460120A84086B214460F46012231467C2000F008FE3A463146782000F003FE607826780002F8
:406400000643E078A2780002024360792379000203430C2045430D2080010549281844182680001D44182280001D40180380F8BD00102E40401880B270470000CB065B0EEA
:406440000343480901021943D00108430121C902084301490881704780142E404278037812021343084A1382C37880781B021843908248780B78000203431383C8788978A1
:40648000000201439183704700142E40024A1080000C90801181704700142E40044A002180180288491C89B21029FAD37047000000102E40024A108201488030818170478A
:4064C000A0102E407047000010B5054A1082084600F0BAFD024A0021A03A8018018010BDA0102E4010B50B46044600F005F819462046FFF7DFFF10BD024A10820148803057
:4065000001817047A0102E4010B504490882FF20002220211D3000F073FD10BDA0102E400149088070470000C0102E40000202494D3008807047000000102E400249888AA3
:406540000422904388827047C0112E4010B5084B074C0202A03B0029208202D075321A8010BD04490020088088807632F7E70000A0102E40201A2E4000B50349088848808B
:40658000FFF7F8FE00BD00004E0D002010B50120FDF75AFB01495020088010BD00102E4006490E220028888806D01043888003495120C039088070479043F7E7C0102E402F
:4065C00000B502484088FFF7FBFE00BD4E0D002010B5FCF71DFC10BD014952200880704700102E40884201D8081A03E00022D243101A401880B27047002101707047000003
:406600000748808806492039098B884201D8081A03E00022D243101A401880B27047000020112E400148008AC0B27047A0102E4070B5084C049D208207480489054860304F
:4066400006880E8001891180808818806007400F287070BDA0102E40E0112E400148008970470000C0102E4000280FD00D4A108B0870000A4870908B8870000AC8700948AB
:40668000203000880871000A48717047064A10880870000A487090888870000AC8701089F0E7000040102E40C0112E4000B5024A00F004F800BD0000FF7F000000B51346F8
:4066C000FFF790FF984201D8022800D2002000BD0148008A70470000001A2E40024908820248008970470000A0102E40001A2E40014880887047000020102E4002490882F7
:406700000148803000887047A0102E40064B1A8999891B8A0270120A42708170090AC1700371190A4171704760102E40012904D00549098BC90B01707047034940310989CA
:406740008907C90FF7E7000000102E40024908820248008970470000A0102E40201A2E40014840897047000048160020024908820248808970470000A0102E40001A2E4064
:40678000044A10820448028980894843101880B270470000A0102E40481600209021074B414300B5C918FF2260314A770A7700228A77114600F02AFA00BD00005C150020F4
:4067C00090225043074A10B58018FF21603041770177002181770448418EFF201D3000F007FC10BD5C1500201415002000B5044A1082034880308088022200F003F800BD28
:40680000A0102E4010B50023884201D8081A03E00024E443201A4018044980B2884201D8824200D90123184610BD0000FF7F0000024880880006C00F70470000C0102E4025
:4068400002488089C007C00F70470000201A2E4070B55478157824022543D47888232602947834435679127936023243002900D09823044908820348A038181805808480B4
:40688000028170BDA0102E40FFB581B014460D4607460A9E0B9BFFF773FF002E0AD0009333460021049AFCF745F905484019C45505B0F0BD0021049AFCF722F9F5E70000A7
:4068C000520D002070B502460448054D808808242C800B460021FCF713F970BD48160020A0142E4010B5212402466401044953200880102300212046FCF702F910BD00007C
:4069000000102E40417802780902044B0A431A83C1788078090208439883704760142E40034A1082802001430148803001817047A0102E40054A1082044A6032908B00092F
:40694000000108439115084390837047A0102E4030B500210F4B0A46012809D0032802D005280AD107E04021198102210A2204E004210C2201E004210D221882054C20345F
:406980002088C0B205460D42FAD022800021198230BD000080142E4010B5044607480482074801808280032189030820FFF7EEFC200202497530A039088010BDA0102E4040
:4069C000201A2E40054A1082044A60321183000202494B30A039088070470000A0102E40054A491E1082044A60321183000202494C30A03908807047A0102E4003498842CB
:406A000000D908460249088070470000FF0F000060112E400349884200D908460249888070470000FF0F000060112E408823002900D09823084908820748A0381918088862
:406A40001070000A507088889070000AD07008891071000A50717047A0102E4010B51446024606480B46C0880021FCF72FF8012C02D103495420088010BD000048160020A4
:406A800000102E40064A11880170090A417091888170090AC1700349542008807047000080142E4000102E400121814010B589B200227C2000F0A4FA10BD0000FEB5FF219E
:406AC0000120FFF73FFCFF210820FFF73BFC3020FFF750FC3F48802101803F483F4D00784007400F02286FD001286BD100202880002211460320FCF799F8394E3949B08D77
:406B00008882384F002420373248A0300482308F38822046FFF754FE641C2406240EF3D0B08F38832E48103000F052F9716930690191009069464879C0210843694648712F
:406B4000684600F06DF900F055F82548214C40304188A03421838188A1831E49C088C0318880708E38802048002606823920FFF727FC184F532038801C4907200883542019
:406B80003880E020FFF78AFCE820FFF787FCF020FFF784FC0020FDF7DFFF13488682282101838015A0810F48403086815B203880094800784007400F022807D0012801D166
:406BC0000B482880FEBDFFE7032090E70848C01CF7E7000000102E4048160020001F2E4014150020C0112E40001A2E4080142E40E0230000044800218183018302497420E3
:406C0000603908807047000060102E40074B1882064B6033988B00090001084399158843002A01D11021484098837047A0102E40F3B50D2284B0920100924A780B781202AF
:406C400013430393CA788B78120213434A790979FF20120211431A4A8C46918B9E460291118B01911649742260390A80154900220F7821E00121124B9140009C603BE31814
:406C80001D8889B21C881B88039E6E407546654064462E435C4026430CD1029B194209D00199D140CB070499DB0F8B4202D1104606B0F0BD521CD2B29742DBD8F8E7000076
:406CC00060102E405415002030B50949FF208C8B084A00210125137805E02A468A40224204D0491CC9B28B42F7D830BD084630BD60102E405415002010B50446E020FFF735
:406D0000CDFB20782246401CC3B20021E020FBF79DFE10BD42790021012A02D901214171090342790A430179042914D049001143827B032A01D8D2001143427B52010A43C7
:406D4000817909021143012252031143054A118300889083704711460122920211430222E5E7000000102E4000B50120FFF702FB01494120088000BD00102E4000B50120DC
:406D8000FFF71EFB01494020088000BD00102E40024A10820148603081817047A0102E4010B5044C208204488180028183815143018210BDA0102E40A0132E40034B188233
:406DC000024820388180028070470000A0102E404178027809020A4306490A80C2788378120213438B804279007912021043088170470000C0112E404178027809020A43E6
:406E000006490A81C2788378120213438B81427900791202104308827047000060102E40417802780902084B0A431A83C178827809020A439A83417900790902084302491C
:406E4000203108807047000040102E404178027809020A4306498A80C2788378120213430B814279007912021043888170470000001F2E4010B50446E820FFF70FFB20781E
:406E80002246401CC3B20021E820FBF7DFFD10BD024A10820248818370470000A0102E40001A2E40024A10820148603081807047A0102E4010B5044688000521FAF7F0FC25
:406EC00004490C8204498880200202497230A039088010BDA0102E40001A2E4003490882000202497330A03908807047A0102E4003490882000202497030A03908807047A8
:406F0000A0102E4003490882000202497130A03908807047A0102E40F8B505461C4617460E46084600F090F8054AB90021431582034AA03A80180180024880194455F8BDF4
:406F4000A0102E40570D0020034A118B8905890D8002084310837047A0102E4030B50E4C238A01251A46012804D0022804D000290BD00CE02A430AE0002908D12A43228266
:406F80005008400020821A4601E05A0852009A4200D0228230BD0000001A2E40054A1082044A6032908B4023984389010143918370470000A0102E40044A118A02230028D6
:406FC00001D0194300E0994311827047001A2E4000B5064A1082054860300181002901D0012000E00020FFF7E7FF00BDA0102E40024A801802880A430280704700102E409C
:4070000070B5084BC5182C880023080003D104E040085B1C9BB2C607FAD08C439A4022432A8070BD00102E40024A1018405C8007800F7047570D002002490882014880302F
:4070400080897047A0102E408000FF3041307047044B02461B8AFF208B4202D902484018805C704748160020520D0020024908820148803000897047A0102E401749024652
:407080000B680020002B08D10A605207520F012A04D0022A10D0086012207047112292018A80CA80032252020A810122D2024A8140228A8105220DE0092252028A80CA8085
:4070C000012252030A810322D2024A81012252028A810422CA810A8270470000481600200A4600B501461046FFF7B2FF00BD38B50C4605460021684600910AF095FA002874
:4071000004D1009928464C7000F006FC38BD10B5044680780021FFF73BFE01212046FFF7DBF810BD436E002B0CD00B60014660318B781370826E4266CA788A7000218166FE
:4071400008467047FF20704710B50346446E6033002C04D0846E002C04D0FF2010BD41669A7001E08166DA70002010BD0021416681667047406E002801D000207047FF2050
:40718000704770B50446C0790D46810610D5DF210840E07100F0D2FE0570218941804034218A8180618AC180A18A018101F012FC70BD000010B50446FEF74EFE01280AD1FF
:4071C000A1789020054A484380186030007FFDF73BF9012801D000F003FB10BD5C150020F8B50E460446FCF757FF01282BD02079042801D0072825D1F079B779000207437F
:40720000A0783946FFF7F2FA25464035012820D03A46711C204600F090FA02212046FDF712FEA07DC107C90F0220FFF797FE688A002807D0E87E002804D10321090208204D
